:0400000080314C28D7
:100008007E14803120007F08F100911E48282300CB
:100018001908F0007008F2007A08031D1A287A08F7
:10002800031D46281B307206031D46287A0803194B
:1000380022281B307206031D2228FA0110307A028A
:10004800031833287208F0007A08A03E860087015A
:10005800700881000130F0007008FA073428FA01AE
:1000680010307A0203183D287A08A03E86008701DE
:1000780081017A08031946280D307206031D4628A7
:1000880020006417200091127108FF007E100900FB
:1000980080314E28FA016330840000308500093031
:1000A8009031AF208031A0308400003085001030BE
:1000B8009031AF20803120308400013085005030ED
:1000C8009031AF208031E93084009030850047308E
:1000D8008600003087001C309031A9207E10200057
:1000E80092319C2A1B34003400340034003400342C
:1000F8000034003400343134003400340034003427
:100108000034003400340034323400340034003415
:100118000034003400340034003433340034003404
:1001280000340034003400340034003434340034F3
:1001380000340034003400340034003400343534E2
:100148000034003400340034003400340034003407
:1001580036340034003400340034003400340034C1
:1001680000343734003400340034003400340034B0
:10017800003400343834003400340034003400349F
:10018800003400340034393400340034003400348E
:100198000034003400340034303400340034003487
:1001A800003400340034003400342D34003400347A
:1001B8000034003400340034003400343D3400345A
:1001C80000340034003400340034003400341B346C
:1001D8005B3433347E34003400340034003400346B
:1001E800083400340034003400340034003400345F
:1001F8000034003400340034003400340034003457
:100208000034003400340034003400340034003446
:10021800003400340034093400340034003400342D
:1002280000340034003400347134003400340034B5
:10023800003400340034003400347734003400349F
:1002480000340034003400340034003465340034A1
:100258000034003400340034003400340034723484
:1002680000340034003400340034003400340034E6
:100278007434003400340034003400340034003462
:10028800003479340034003400340034003400344D
:100298000034003475340034003400340034003441
:1002A800003400340034693400340034003400343D
:1002B80000340034003400346F3400340034003427
:1002C8000034003400340034003470340034003416
:1002D8000034003400340034003400345B3400341B
:1002E80000340034003400340034003400345D3409
:1002F8000034003400340034003400340034003456
:100308000034003400340034003400340034003445
:1003180000340D3400340034003400340034003428
:100328000034003400340034003400340034003425
:100338000034003400340034003400340034003415
:1003480000340034003400346134003400340034A4
:100358000034003400340034003473340034003482
:100368000034003400340034003400346434003481
:10037800003400340034003400340034003466346F
:1003880000340034003400340034003400340034C5
:10039800673400340034003400340034003400344E
:1003A800003468340034003400340034003400343D
:1003B800003400346A34003400340034003400342B
:1003C8000034003400346B3400340034003400341A
:1003D80000340034003400346C3400340034003409
:1003E800003400340034003400343B34003400342A
:1003F800003400340034003400340034273400342E
:100408000034003400340034003400340034403404
:100418000034003400340034003400340034003434
:100428000034003400340034003400340034003424
:100438000034003400340034003400340034003414
:100448000034003400340034003400340034003404
:1004580000340034003400340034003400340034F4
:1004680000340034003400340034003400340034E4
:10047800003400340034003400347A34003400345A
:10048800003400340034003400340034783400344C
:100498000034003400340034003400340034633451
:1004A80000340034003400340034003400340034A4
:1004B800763400340034003400340034003400341E
:1004C8000034623400340034003400340034003422
:1004D800003400346E340034003400340034003406
:1004E8000034003400346D340034003400340034F7
:1004F80000340034003400342C3400340034003428
:10050800003400340034003400342E340034003415
:100518000034003400340034003400341B345B34BD
:1005280031347E34003400340034003400341B3459
:100538005B34413400340034003400340034003477
:100548001B345B3434347E340034003400340034DB
:1005580000341B345B3435347E34003400340034CA
:1005680000340034003400340034003400340034E3
:1005780000340034003400340034003400340034D3
:1005880000340034003400345C3400340034003467
:1005980000340034003400340034003400340034B3
:1005A80000340034003400340034003400340034A3
:1005B8000034003400340034003400340034003493
:1005C8000034003400340034003400340034003483
:1005D8000034003400340034003400340034003473
:1005E8000034003400340034003400340034003463
:1005F8000034003400340034003400340034003453
:100608000034003400340034003400340034003442
:100618000034003400340034203400340034003412
:10062800003400340034003400342F3400340034F3
:100638000034003400340034003400341B345B349C
:1006480044340034003400340034003400341B34A3
:100658005B34423400340034003400340034003455
:100668001B345B3443340034003400340034003429
:1006780000341B345B3436347E34003400340034A8
:10068800003400341B3400340034003400340034A7
:100698000034003400342134003400340034003491
:1006A8000034003400340034A334003400340034FF
:1006B800003400340034003400342334003400346F
:1006C800003400340034003400340034243400345E
:1006D800003400340034003400340034003425344D
:1006E8000034003400340034003400340034003462
:1006F8005E340034003400340034003400340034F4
:10070800003426340034003400340034003400341B
:10071800003400342A340034003400340034003407
:1007280000340034003428340034003400340034F9
:1007380000340034003400342934003400340034E8
:10074800003400340034003400345F3400340034A2
:100758000034003400340034003400342B340034C6
:1007680000340034003400340034003400341B34C6
:100778005B3432347E3400340034003400340034C6
:1007880008340034003400340034003400340034B9
:1007980000340034003400340034003400340034B1
:1007A80000340034003400340034003400340034A1
:1007B8000034003400341B345B345A3400340034C1
:1007C8000034003400340034513400340034003430
:1007D800003400340034003400345734003400341A
:1007E800003400340034003400340034453400341C
:1007F80000340034003400340034003400345234FF
:100808000034003400340034003400340034003440
:1008180054340034003400340034003400340034DC
:1008280000345934003400340034003400340034C7
:1008380000340034553400340034003400340034BB
:1008480000340034003449340034003400340034B7
:1008580000340034003400344F34003400340034A1
:100868000034003400340034003450340034003490
:100878000034003400340034003400347B34003455
:1008880000340034003400340034003400347D3443
:1008980000340034003400340034003400340034B0
:1008A80000340034003400340034003400340034A0
:1008B80000340D3400340034003400340034003483
:1008C8000034003400340034003400340034003480
:1008D8000034003400340034003400340034003470
:1008E800003400340034003441340034003400341F
:1008F80000340034003400340034533400340034FD
:1009080000340034003400340034003444340034FB
:1009180000340034003400340034003400344634E9
:10092800003400340034003400340034003400341F
:1009380047340034003400340034003400340034C8
:1009480000344834003400340034003400340034B7
:10095800003400344A3400340034003400340034A5
:100968000034003400344B34003400340034003494
:1009780000340034003400344C3400340034003483
:10098800003400340034003400343A340034003485
:10099800003400340034003400340034223400348D
:1009A80000340034003400340034003400347E3421
:1009B800003400340034003400340034003400348F
:1009C800003400340034003400340034003400347F
:1009D800003400340034003400340034003400346F
:1009E800003400340034003400340034003400345F
:1009F800003400340034003400340034003400344F
:100A0800003400340034003400340034003400343E
:100A1800003400340034003400345A3400340034D4
:100A280000340034003400340034003458340034C6
:100A380000340034003400340034003400344334CB
:100A480000340034003400340034003400340034FE
:100A58005634003400340034003400340034003498
:100A6800003442340034003400340034003400349C
:100A7800003400344E340034003400340034003480
:100A88000034003400344D34003400340034003471
:100A980000340034003400343C3400340034003472
:100AA800003400340034003400343E340034003460
:100AB8000034003400340034003400341B345B3418
:100AC80031347E34003400340034003400341B34B4
:100AD8005B344134003400340034003400340034D2
:100AE8001B345B3434347E34003400340034003436
:100AF80000341B345B3435347E3400340034003425
:100B0800003400340034003400340034003400343D
:100B1800003400340034003400340034003400342D
:100B2800003400340034003480340034003400349D
:100B3800003400340034003400340034003400340D
:100B480000340034003400340034003400340034FD
:100B580000340034003400340034003400340034ED
:100B680000340034003400340034003400340034DD
:100B780000340034003400340034003400340034CD
:100B880000340034003400340034003400340034BD
:100B980000340034003400340034003400340034AD
:100BA800003400340034003400340034003400349D
:100BB800003400340034003420340034003400346D
:100BC800003400340034003400343F34003400343E
:100BD8000034003400340034003400341B345B34F7
:100BE80044340034003400340034003400341B34FE
:100BF8005B344234003400340034003400340034B0
:100C08001B345B3443340034003400340034003483
:100C180000341B345B3436347E3400340034003402
:100C2800003400341B340034003400340034003401
:100C3800003400340034B934003400340034003453
:100C48000034003400340034B2340034003400344A
:100C580000340034003400340034B3340034003439
:100C6800003400340034003400340034DF340034FD
:100C78000034003400340034003400340034EA34E2
:100C880000340034003400340034003400340034BC
:100C980000340034003400340034003400340034AC
:100CA8000034EC34003400340034003400340034B0
:100CB80000340034AA3400340034003400340034E2
:100CC800003400340034ED3400340034003400348F
:100CD8000034003400340034F83400340034003474
:100CE80000340034003400340034AD3400340034AF
:100CF800003400340034003400340034AC340034A0
:100D080000340034003400340034003400347F34BC
:100D1800003400340034003400340034003400342B
:100D28000834003400340034003400340034003413
:100D3800003400340034003400340034003400340B
:100D480000340034003400340034003400340034FB
:100D580000340034003409340034003400340034E2
:100D68000034003400340034E034003400340034FB
:100D780000340034003400340034E13400340034EA
:100D8800003400340034003400340034EB340034D0
:100D98000034003400340034003400340034E834C3
:100DA800003400340034003400340034003400349B
:100DB800F934003400340034003400340034003492
:100DC8000034FD340034003400340034003400347E
:100DD80000340034FC34003400340034003400346F
:100DE800003400340034EF3400340034003400346C
:100DF8000034003400340034D63400340034003475
:100E080000340034003400340034DE34003400345C
:100E1800003400340034003400340034E634003444
:100E28000034003400340034003400340034BD345D
:100E3800003400340034003400340034003400340A
:100E480000340034003400340034003400340034FA
:100E580000340D34003400340034003400340034DD
:100E680000340034003400340034003400340034DA
:100E780000340034003400340034003400340034CA
:100E88000034003400340034E434003400340034D6
:100E980000340034003400340034A8340034003402
:100EA800003400340034003400340034F0340034AA
:100EB8000034003400340034003400340034E934A1
:100EC800003400340034003400340034003400347A
:100ED800FB3400340034003400340034003400346F
:100EE8000034FA3400340034003400340034003460
:100EF80000340034EE34003400340034003400345C
:100F0800003400340034D334003400340034003466
:100F18000034003400340034D43400340034003455
:100F280000340034003400340034FF34003400341A
:100F3800003400340034003400340034B534003454
:100F48000034003400340034003400340034A93450
:100F580000340034003400340034003400340034E9
:100F680000340034003400340034003400340034D9
:100F780000340034003400340034003400340034C9
:100F880000340034003400340034003400340034B9
:100F980000340034003400340034003400340034A9
:100FA8000034003400340034003400340034003499
:100FB80000340034003400340034B834E3340034EE
:100FC800003400340034003400340034E734003492
:100FD8000034003400340034003400340034E53484
:100FE8000034003400340034003400340034003459
:100FF800D534003400340034003400340034003474
:101008000034F13400340034003400340034003447
:1010180000340034D2340034003400340034003456
:10102800003400340034B034003400340034003468
:101038000034003400340034B73400340034003451
:10104800003400340034003400341B345B34313451
:101058007E34003400340034003400341B345B34F4
:1010680041340034003400340034003400341B347C
:101078005B3434347E3400340034003400340034BB
:101088001B345B3435347E3400340034003400348F
:1010980000340034003400340034003400340034A8
:1010A8000034003400340034003400340034003498
:1010B8000034003400340034003400340034003488
:1010C8000034003400340034E23400340034003496
:1010D8000034003400340034003400340034003468
:1010E8000034003400340034003400340034003458
:1010F8000034003400340034003400340034003448
:101108000034003400340034003400340034003437
:101118000034003400340034003400340034003427
:101128000034003400340034003400340034003417
:101138000034003400340034003400340034003407
:1011480000340034003400340034003400340034F7
:101158000034003400340034A03400340034003447
:1011680000340034003400340034F73400340034E0
:101178000034003400340034003400341B345B3451
:1011880044340034003400340034003400341B3458
:101198005B3442340034003400340034003400340A
:1011A8001B345B34433400340034003400340034DE
:1011B80000341B345B3436347E340034003400345D
:1011C800003400341B34003400340034003400345C
:1011D800003400340034A1340034003400340034C6
:1011E8000034003400340034A534003400340034B2
:1011F80000340034003400340034A73400340034A0
:10120800003400340034003400340034A234003494
:101218000034003400340034003400340034CA345C
:101228000034003400340034003400340034003416
:10123800BA3400340034003400340034003400344C
:101248000034CC340034003400340034003400342A
:1012580000340034D734003400340034003400340F
:10126800003400340034CD34003400340034003409
:101278000034003400340034D834003400340034EE
:1012880000340034003400340034AF340034003407
:10129800003400340034003400340034B1340034F5
:1012A80000340034003400340034003400347F3417
:1012B8000034003400340034003400340034003486
:1012C800083400340034003400340034003400346E
:1012D8000034003400340034003400340034003466
:1012E8000034003400340034003400340034003456
:1012F8000034003400341B345B345A340034003476
:101308000034003400340034C03400340034003475
:1013180000340034003400340034C1340034003464
:10132800003400340034003400340034CB3400344A
:101338000034003400340034003400340034C8343D
:1013480000340034003400340034003400340034F5
:10135800D93400340034003400340034003400340C
:101368000034DD34003400340034003400340034F8
:1013780000340034DC3400340034003400340034E9
:10138800003400340034CF340034003400340034E6
:101398000034003400340034F634003400340034AF
:1013A80000340034003400340034FE340034003497
:1013B800003400340034003400340034C6340034BF
:1013C8000034003400340034003400340034BC34B9
:1013D8000034003400340034003400340034003465
:1013E8000034003400340034003400340034003455
:1013F80000340D3400340034003400340034003438
:101408000034003400340034003400340034003434
:101418000034003400340034003400340034003424
:101428000034003400340034C43400340034003450
:1014380000340034003400340034A634003400345E
:10144800003400340034003400340034D034003424
:101458000034003400340034003400340034C9341B
:1014680000340034003400340034003400340034D4
:10147800DB340034003400340034003400340034E9
:101488000034DA34003400340034003400340034DA
:1014980000340034CE3400340034003400340034D6
:1014A800003400340034F3340034003400340034A1
:1014B8000034003400340034F43400340034003490
:1014C80000340034003400340034BE3400340034B6
:1014D800003400340034003400340034B6340034AE
:1014E8000034003400340034003400340034AE34A6
:1014F8000034003400340034003400340034003444
:101508000034003400340034003400340034003433
:101518000034003400340034003400340034003423
:101528000034003400340034003400340034003413
:101538000034003400340034003400340034003403
:1015480000340034003400340034003400340034F3
:1015580000340034003400340034B434003400342F
:10156800003400340034003400340034C334003410
:101578000034003400340034003400340034C734FC
:1015880000340034003400340034003400340034B3
:10159800C5340034003400340034003400340034DE
:1015A8000034F5340034003400340034003400349E
:1015B80000340034D13400340034003400340034B2
:1015C800003400340034F234003400340034003481
:1015D8000034003400340034AB34003400340034B8
:1015E80000340034003400340034BB340034003498
:1015F8000034003400340034003400341B345B34CD
:1016080031347E34003400340034003400341B3468
:101618005B34413400340034003400340034003486
:101628001B345B3434347E340034003400340034EA
:1016380000341B345B3435347E34003400340034D9
:1016480000340034003400340034003400340034F2
:1016580000340034003400340034003400340034E2
:101668000034003400340034C23400340034003410
:1016780000340034003400340034003400340034C2
:1016880000340034003400340034003400340034B2
:1016980000340034003400340034003400340034A2
:1016A8000034003400340034003400340034003492
:1016B8000034003400340034003400340034003482
:1016C8000034003400340034003400340034003472
:1016D8000034003400340034003400340034003462
:1016E8000034003400340034003400340034003452
:1016F8000034003400340034A034003400340034A2
:1017080000340034003400340034BF340034003472
:101718000034003400340034003400341B345B34AB
:1017280044340034003400340034003400341B34B2
:101738005B34423400340034003400340034003464
:101748001B345B3443340034003400340034003438
:1017580000341B345B3436347E34003400340034B7
:1017680000340034003400340034003400340034D1
:101778000034003400341B345B34313431347E346B
:1017880000340034003400341B345B3431343234D8
:101798007E3400340034003400341B345B3431347C
:1017A80033347E3400340034003400341B345B346A
:1017B800313434347E3400340034003400341B3483
:1017C8005B34313435347E34003400340034003432
:1017D8001B345B34313437347E3400340034003405
:1017E80000341B345B34313438347E3400340034F4
:1017F800003400341B345B34313439347E340034E3
:101808000034003400341B345B34323430347E34DA
:1018180000340034003400341B345B343234313447
:101828007E3400340034003400341B345B343234EA
:1018380033347E3400340034003400341B345B34D9
:10184800323434347E34003400340034003400340C
:1018580000340034003400340034003400340034E0
:1018680000340034003400340034003400340034D0
:1018780000340034003400340034003400340034C0
:1018880000340034003400340034003400340034B0
:1018980000340034003400340034003400340034A0
:1018A800003400340034003411340034003400347F
:1018B8000034003400340034003417340034003469
:1018C800003400340034003400340034053400346B
:1018D800003400340034003400340034003412344E
:1018E8000034003400340034003400340034003450
:1018F800143400340034003400340034003400342C
:101908000034193400340034003400340034003416
:10191800003400341534003400340034003400340A
:101928000034003400340934003400340034003406
:1019380000340034003400340F34003400340034F0
:1019480000340034003400340034103400340034DF
:101958000034003400340034003400341B340034C4
:1019680000340034003400340034003400341D34B2
:1019780000340034003400340034003400340034BF
:1019880000340034003400340034003400340034AF
:10199800003400340034003400340034003400349F
:1019A800003400340034003400340034003400348F
:1019B800003400340034003400340034003400347F
:1019C800003400340034003401340034003400346E
:1019D800003400340034003400341334003400344C
:1019E800003400340034003400340034043400344B
:1019F8000034003400340034003400340034063439
:101A0800003400340034003400340034003400342E
:101A18000734003400340034003400340034003417
:101A28000034083400340034003400340034003406
:101A3800003400340A3400340034003400340034F4
:101A48000034003400340B340034003400340034E3
:101A580000340034003400340C34003400340034D2
:101A680000340034003400340034003400340034CE
:101A780000340034003400340034003400340034BE
:101A880000340034003400340034003400340034AE
:101A9800003400340034003400340034003400349E
:101AA800003400340034003400340034003400348E
:101AB800003400340034003400340034003400347E
:101AC800003400340034003400340034003400346E
:101AD800003400340034003400340034003400345E
:101AE800003400340034003400340034003400344E
:101AF800003400340034003400341A340034003424
:101B08000034003400340034003400341834003415
:101B1800003400340034003400340034003403341A
:101B2800003400340034003400340034003400340D
:101B380016340034003400340034003400340034E7
:101B480000340234003400340034003400340034EB
:101B5800003400340E3400340034003400340034CF
:101B68000034003400340D340034003400340034C0
:101B780000340034003400340034003400340034BD
:101B8800003400340034003400341E34003400348F
:101B9800003400340034003400340034003400349D
:101BA800003400340034003400340034003400348D
:101BB800003400340034003400340034003400347D
:101BC800003400340034003400340034003400346D
:101BD800003400340034003400340034003400345D
:101BE800003400340034003400340034003400344D
:101BF800003400340034003400340034003400343D
:101C080000340034003400341C3400340034003410
:101C1800003400340034003400340034003400341C
:101C2800003400340034003400340034003400340C
:101C380000340034003400340034003400340034FC
:101C480000340034003400340034003400340034EC
:101C580000340034003400340034003400340034DC
:101C680000340034003400340034003400340034CC
:101C780000340034003400340034003400340034BC
:101C880000340034003400340034003400340034AC
:101C9800003400340034003400340034003400349C
:101CA800003400340034003400341F34003400346D
:101CB800003400340034003400340034003400347C
:101CC800003400340034003400340034003400346C
:101CD800003400340034003400340034003400345C
:101CE800003400340034003400340034003400344C
:101CF800003400340034003400340034003400343C
:101D0800003400341B343B347234733474340D346F
:101D18000034003400340034003400341B343B34C5
:101D28007634653472340D340034003400340034B1
:101D3800003400341B343B346234613474340D3461
:101D48000034003400340034003400341B343B3495
:101D5800673461346D3465340D3400340034003434
:101D6800003400341B343B346134723430340D3465
:101D78000034003400340034003400341B343B3465
:101D88006134723431340D3400340034003400349A
:101D9800003400341B343B346134723432340D3433
:101DA8000034003400340034003400341B343B3435
:101DB8006134723433340D34003400340034003468
:101DC800003400341B343B346134723434340D3401
:101DD8000034003400340034003400341B343B3405
:101DE8006134723435340D34003400340034003436
:101DF800003400341B343B346134723436340D34CF
:101E08000034003400340034003400341B343B34D4
:101E18006134723437340D34003400340034003403
:101E28000034003428346E3475346C346C342934FE
:101E3800003431343634303435342E3432340034CE
:061E480025347334003460
:101E5800F30023009E1C2D2F73089A000800200011
:101E6800A3003E2F0130F9007908A3070130A0072D
:101E78000030A13D2308860087012008840021083E
:101E880085000008FF3A013E0107F9007908A20021
:101E98002208031D552F2308860087010108031D0A
:101EA800362F2208A000A101A01BA10308002000D2
:101EB80023082204210420040319952FF401F40AAD
:101EC800A31B722F0130A035A10DA20DA30D890B04
:101ED800672F0130F3007308F407642F23082702E3
:101EE800031D802F22082602031D802F21082502AA
:101EF800031D802F20082402031C8A2F2008A40217
:101F08002108A53B2208A63B2308A73B0130A3369E
:101F1800A20CA10CA00C890B8B2F0130F402031D1D
:101F2800722F2708A3002608A2002508A10024086C
:101F3800A000080022302000A4002408A8002000E7
:101F48002108A5002008A400A00A0319A10A240852
:101F58008400250885000008A6002608A90029088D
:101F680003190800253029060319BF2F29088F31C6
:101F78002C278F31A32F2000A701EA2F28088600DD
:101F88008701403FAA00413FAB000230A40024086B
:101F9800A8072A082B04031DD52F1630AA008F3056
:101FA800AB002A0884002B08850012000319A32F10
:101FB8002A0884002B08850000088F312C278F31D0
:101FC80001302000AA070030AB3DD52F2108A5001D
:101FD8002008A400A00A0319A10A240884002508DF
:101FE80085000008A900003A0319FF2F733A031966
:101FF800C22FA32FA32F08009631D22E9631D42EAC
:102008009731762F9631E12E9631F22E9731022FA5
:102018009731122F97311A2F97312A2F9731322F54
:082028009731422F9731522F2E
:10215200FE0012001E00FE0BAA280034640080015B
:102162000131890BB028003474082000A1007308E3
:10217200A0000130F7020030F83B770A0319780A11
:1021820003190800200886002108870075088100CD
:102192000130A0070030A13DBA28F701F801731CF5
:1021A200D6287508F7077608F83D0130F535F60DA3
:1021B200890BD7280130F436F30C890BDC2873081D
:1021C2007404031DD0287808F4007708F30008008F
:1021D2000434003400340034283400340034003431
:1021E200FF34FF34FF34FF34FF34FF34FF34FF3455
:1021F200FF34FF34FF34FF34FF34FF34FF34FF3445
:10220200FF34FF34FF34FF340E302000A0002008DA
:10221200AA00AE0105302E0203181F292E354F3EAB
:1022220086008701FF30C03FFF30C13F0130A00070
:102232002008AE0705302E02031C0F290330A00030
:102242002008AB002B080319932AAE0105302E0299
:102252000318712A1030A0002008A900FE30AC003B
:10226200FF30AD00AF01B0010130A902290A031904
:102272006F292C0822008C0020002D0822008F00DC
:1022820001302000A0002E0A4729A035890B4629DB
:1022920020080D05031D4F29013050290030A100EF
:1022A200A2013008A4002F08A300A335A40D210821
:1022B2002307A5002208243DA6002508AF00260812
:1022C200B0002D08A1002C08A000A035A10D200807
:1022D200013EAC000030213DAD003529B01F73290D
:1022E200013074290030A000A1012F1C7A2901308D
:1022F2007B290030A200A3010F30A235A30D890B68
:102302007E29FE302F05A4007F303005A50022086B
:102312002404A60023082504A70020082604AF00F1
:1023220021082704B000301F982901309929003074
:10233200A000A101A035A10DAF1CA1290130A22945
:102342000030A200A3010E30A235A30D890BA529EE
:10235200FD302F05A400BF303005A500220824045B
:10236200A60023082504A70020082604AF002108A0
:102372002704B000B01EBF290130C0290030A000E0
:10238200A101A035A10DA035A10D2F1DCA29013033
:10239200CB290030A200A3010D30A235A30D890B79
:1023A200CE29FB302F05A400DF303005A50022081E
:1023B2002404A60023082504A70020082604AF0051
:1023C20021082704B000301EE8290130E929003035
:1023D200A000A101A035A10DA035A10DA035A10D30
:1023E200AF1DF5290130F6290030A200A301220E0B
:1023F200F039A300A201F7302F05A400EF30300519
:10240200A50022082404A60023082504A70020080A
:102412002604AF0021082704B000B01D122A0130A3
:10242200132A0030A000A1012008A100A001301C45
:102432001C2A01301D2A0030A300A4010B30A33551
:10244200A40D890B202AFF302F05A500F630300598
:10245200A60023082504A70024082604A8002008B3
:102462002704AF0021082804B000301D3A2A0130A9
:102472003B2A0030A000A1010930A035A10D890B33
:102482003E2AB01C462A0130472A0030A200A3018E
:102492000A30A235A30D890B4A2AFF302F05A4006A
:1024A200F9303005A50022082404A60023082504DB
:1024B200A70020082604AF0021082704B0002E350B
:1024C2004F3E860087012F08810541313008810582
:1024D2000130A0002008AE0705302E02031C2B2974
:1024E200901C772AFD30A0002008AA05101D7D2A25
:1024F200FB30A0002008AA05101C832AF730A00098
:102502002008AA052B0803198F2A0D30A100FB30E1
:10251200A000A00B8A2AA10B8A2A003201302000D7
:10252200AB022329F130A0002008E4052A08A0000C
:102532002008E4040800210019088739703899003E
:1025420023008C0122008C0121008C01E030230049
:102552008D0022008D013F3021008D0023008E016D
:1025620022008E01E73021008E0023008F0122001D
:102572008F0121008F012300900121001D08833962
:1025820034389D001E088F3950389E0000302000DC
:10259200C2000030C1000030C0003330BF00230051
:1025A2009D1320003F0823009B0020003F08B1003C
:1025B2004008B2004108B3004208B4000830B43603
:1025C200B30CB20CB10C890BE02A310823009C0039
:1025D2009F151E151E129E161D1621009116200013
:1025E200911221000E118E100E1006302000B30041
:1025F2001330B200B130B100B10BFD2AB20BFD2A8B
:10260200B30BFD2A00325930860087014F30840017
:1026120085010A302000B10012001E00B10B0D2B03
:102622006730F3000030F4000030F500F6000530AA
:10263200F7000030F8009031B52092312030F300DD
:102642000130F4000030F500F6005030F7000030A1
:10265200F8009031B5209231A030F3000030F40040
:102662000030F500F6001030F7000030F80090312D
:10267200B52092312000E40121001708C139123837
:10268200970017140B178B177C2F22000E162000B1
:10269200641D552B64080A390319571D552B013047
:1026A200B1003108EA07562BEA0132306A02031CF4
:1026B200692B6730F3000030F4000030F500F600BB
:1026C2000530F7000030F8009031B52092317C2FB0
:1026D200641D752B64080A3903194F1C752B0130D0
:1026E200B1003108E907762BE90196306902031C33
:1026F200C42B21000E118E140E106730F30000302F
:10270200F4000030F500F6000530F7000030F80064
:102712009031B52092312000E401E40A0030CE006D
:102722000030CD000030CC002830CB000030CA0091
:102732000030C9000030C8000430C700593086009C
:1027420087014F30840085010A302000B100120059
:102752001E00B10BA82B23009D1321008E12023004
:102762002000B3000430B200BA30B100B10BB72B75
:10277200B20BB72BB30BB72B000021008E16230030
:102782009D17FA017C2F641DD02B64080A390319A6
:10279200D81ED02B0130B1003108E807D12BE80157
:1027A20096306802031C0B2C21000E118E140E149D
:1027B2006730F3000030F4000030F500F600053019
:1027C200F7000030F8009031B52092312000E4018A
:1027D2000030CE000030CD000030CC002830CB00DD
:1027E2000030CA000030C9000030C8000430C70001
:1027F2005930860087014F30840085010A3020005D
:10280200B10012001E00B10B022C23009D13220006
:102812000E127C2F6419E601E41CE51C152C6608D7
:10282200031D152CE601E60AE51CE41C272C6608AC
:102832000319272C153066020318232C1030B1001F
:102842003108E406EC30B1003108E60066080319ED
:102852002E2C0130B1003108E607E41DE51D362CAF
:102862006308031D362CE301E30AE51DE41D482C31
:1028720063080319482C153063020318442C2030D6
:10288200B1003108E406EC30B1003108E30063081E
:1028920003194F2C0130B1003108E3076408B1007D
:1028A2003108E500641AE41E5D2CC6010130C50042
:1028B200B1003108C400732C641E662C0130C500BF
:1028C200C400B1003108C600732CE41E6F2C013025
:1028D200C400B1003108C600C501732CC401C60191
:1028E200C501C50A4608031D792C21000E157B2C53
:1028F20021000E1120004408031D822C21008E1499
:10290200842C21008E1020004508031D8B2C2100F1
:102912000E148D2C21000E102000641D922C043008
:10292200A12C6408123903199C2C64082839031954
:102932009C2C0330A12C640828390319A52C0230E1
:10294200B1003108C400AD2C640812390319AC2C53
:10295200C401C40AAD2CC401C601053046020318E5
:10296200A82EC501103045020318942E46354F3E5D
:1029720086008701403FB100413FB2000130B30001
:102982000030B400450AC72CB335B40D890BC52CF1
:1029920031083305B50032083405B600350836046F
:1029A2000319792EE301E6014408B100B2013108AE
:1029B200F3003208F400D030F5000230F600903116
:1029C200CE20923176302000B3008030B4007308FC
:1029D2003307B5007408343DB6004608B700B801A5
:1029E2003708F3003808F4009030F5000030F600A4
:1029F2009031CE209231730820003507B900740857
:102A0200363DBA004508BB00BC013B08F3003C0858
:102A1200F4000930F5000030F6009031CE209231FA
:102A2200730820003907BD0074083A3DBE003D0816
:102A32003E0403198B2E4408B100B2013108F300A1
:102A42003208F400D030F5000230F6009031CE208A
:102A5200923176302000B3008030B400730833071F
:102A6200B5007408343DB6004608B700B80137080F
:102A7200F3003808F4009030F5000030F600903191
:102A8200CE209231730820003507B9007408363D14
:102A9200BA004508BB00BC013B08F3003C08F40047
:102AA2000930F5000030F6009031CE20923120003E
:102AB2003908730784003A08743D8500120003192F
:102AC2008B2E4635593E86008701403FB100413F7B
:102AD200B2000130B3000030B400450A722DB335A4
:102AE200B40D890B702D31083305B5003208340559
:102AF200B6003508360403198A2D4E084D044C04DD
:102B02004B0403198A2D4A08490448044704031D4B
:102B1200D52D2430A0008F30A1004408B100B201AD
:102B22003108F3003208F400D030F5000230F6002C
:102B32009031CE20923176302000B3008030B40044
:102B420073083307B5007408343DB6004608B70071
:102B5200B8013708F3003808F4009030F50000306F
:102B6200F6009031CE209231730820003507B9006B
:102B72007408363DBA004508BB00BC013B08F300AF
:102B82003C08F4000930F5000030F6009031CE2008
:102B92009231730820003907A20074083A3DA3005D
:102BA2008F319E2792318B2E01302000B1004608D2
:102BB200B2000430B235890BDB2D20303207B3006E
:102BC20045083307B4003408860001308700310815
:102BD20081070108B500B601B701B80138084E02F5
:102BE200031DFD2D37084D02031DFD2D36084C0235
:102BF200031DFD2D35084B0203188B2E4A08A30036
:102C02004908A2004808A1004708A0004608B100F0
:102C12000430B135890B0A2E20303107B200450845
:102C22003207B30033088600013087000108B40080
:102C3200B501B601B7013708A7003608A600350866
:102C4200A5003408A4008F315B27923120002308AD
:102C5200220421042004031D8B2E2430A0008F3077
:102C6200A1004408B100B2013108F3003208F400B7
:102C7200D030F5000230F6009031CE20923176301D
:102C82002000B3008030B40073083307B500740825
:102C9200343DB6004608B700B8013708F3003808DB
:102CA200F4009030F5000030F6009031CE209231E1
:102CB200730820003507B9007408363DBA0045088C
:102CC200BB00BC013B08F3003C08F4000930F500EE
:102CD2000030F6009031CE2092317308200039077F
:102CE200A20074083A3DA3008F319E2792318B2EA9
:102CF20020004608B1000430B135890B7D2E20300A
:102D02003107B20045083207B300330886000130AC
:102D12008700810101302000B1003108C507103061
:102D22004502031CB72C46354F3E860087014635C7
:102D3200593E84008501403F803F413F813F013041
:102D4200B1003108C60705304602031CB22C641FCD
:102D52007C2FC3010C3043020318762F4308B100C5
:102D6200B2013108F3003208F4000C30F5000030F3
:102D7200F6009031CE20923186302000B3008E30A2
:102D8200B40073083307A0007408343DA100A030DA
:102D92008F31332792312000200821040319632F39
:102DA2006E2F0100762F24302000A0008F30A1006A
:102DB2001D30A2008F30A3008F319E279231762FD3
:102DC20000302000CE000030CD000030CC000030BA
:102DD200CB000030CA000030C9000030C80000300B
:102DE200612FFF30CE00FF30CD00FF30CC00FF302E
:102DF200CB00FF30CA00FF30C900FF30C800FF30EF
:102E0200612F0030CE000030CD000030CC001E30EB
:102E1200CB000030CA000030C9000030C8000230C8
:102E2200612F0030CE000030CD000030CC001E30CB
:102E3200212F0030CE000030CD000030CC002830F1
:102E4200CB000030CA000030C9000030C800033097
:102E5200612F0030CE000030CD000030CC00283091
:102E6200392F0030CE000030CD000030CC0037309A
:102E7200CB000030CA000030C9000030C800043066
:102E8200612F0030CE000030CD000030CC00373052
:102E9200CB000030CA000030C9000030C800053045
:102EA200612F0030CE000030CD000030CC003C302D
:102EB200CB000030CA000030C9000030C800063024
:102EC200C700762F430884000C3004020318762FC3
:102ED20090310435003E8200762F0130B100310876
:102EE200C3070C304302031CAF2EFA01BF3020008F
:102EF200B1003108E40564009131052192312000CE
:102F02006418462B22000E1201302000B100310855
:102F1200EB0714306B02031CB52FEB0121001D14CB
:102F220021302000B100B10B942F21009D149D1877
:102F3200982F1D10F0301C02031CA12F0E11A92F77
:102F420010301C020318A82F0E118E10AA2F0E1576
:102F52008E140E1441302000B200EE30B100B10BDD
:102F6200B02FB20BB02F00002000641DC22F6408E6
:102F72000A390319D61EC22F0130B1003108E70702
:102F8200C32FE70105306702031CFA2F6730F300F5
:102F92000030F4000030F500F6000530F700003094
:102FA200F8009031B52092312000E401E40A0030AB
:102FB200CE000030CD000030CC002830CB000030F5
:102FC200CA000030C9000030C8000430C7005930C0
:102FD200860087014F30840085010A302000B1004D
:102FE20012001E00B10BF12F22000E1623009D17B6
:0E2FF200FA0121000E158E140E1463007C2FC0
:020000040001F9
:04000E006CC9FFDFDB
:00000001FF
